:100000000C943E000C945B000C945B000C945B0021
:100010000C945B000C945B000C945B000C945B00F4
:100020000C945B000C945B000C945B000C945B00E4
:100030000C945B000C945B000C945B000C945B00D4
:100040000C945B000C945B000C945B000C945B00C4
:100050000C945B000C945B000C945B000C945B00B4
:100060000C9454020C945B000C945B000C945B00A9
:100070000C9461010C945B000C945B0011241FBE76
:10008000CFEFD0E1DEBFCDBF11E0A0E0B1E0E4E012
:10009000F7E002C005900D92A430B107D9F721E036
:1000A000A4E0B1E001C01D92A630B207E1F70E94C2
:1000B00051010C9480030C940000CF93DF93CDB7D3
:1000C000DEB78CE790E020E6FC0120838AE790E031
:1000D0002FE8FC0120830000DF91CF910895CF939A
:1000E000DF93CDB7DEB78AE290E0FC0120818AE29F
:1000F00090E02062FC01208380E890E0FC012081F8
:1001000080E890E02268FC01208381E890E0FC0117
:10011000208181E890E02A61FC01208386E890E05C
:100120002FEF3FEFFC01318320830000DF91CF915F
:100130000895CF93DF93CDB7DEB787E290E0FC015F
:10014000208187E290E02460FC0120830000DF91A1
:10015000CF910895CF93DF93CDB7DEB784E290E0DF
:10016000FC01208184E290E02260FC0120830000F9
:10017000DF91CF910895CF93DF93CDB7DEB785E2BE
:1001800090E0FC01208185E290E02260FC01208368
:100190000000DF91CF910895CF93DF93CDB7DEB705
:1001A00085E290E0FC01808185E290E0FC01108214
:1001B0000000DF91CF910895CF93DF9300D0CDB7AA
:1001C000DEB79A83898389819A81892B51F088E2ED
:1001D00090E0FC01208188E290E02460FC01208313
:1001E00009C088E290E0FC01208188E290E02B7F4A
:1001F000FC01208300000F900F90DF91CF910895B4
:10020000CF93DF93CDB7DEB788E890E0FC01118291
:1002100010820000DF91CF910895CF93DF93CDB787
:10022000DEB726E830E088E890E0F90120813181EE
:10023000FC01318320830000DF91CF910895CF939B
:10024000DF93CDB7DEB781E090E00E94DC000E9432
:100250000D010000DF91CF910895CF93DF93CDB7CB
:10026000DEB780E090E00E94DC000E940D010000FB
:10027000DF91CF910895CF93DF93CDB7DEB78DECAB
:1002800090E0FC0110828CEC90E023E3FC012083E1
:1002900089EC90E028E9FC0120830000DF91CF91F8
:1002A0000895CF93DF93CDB7DEB70E9499000E94E7
:1002B000AA000E946F000E945D000E943B0178949A
:1002C000FFCF1F920F920FB60F9211242F933F93DF
:1002D0004F935F936F937F938F939F93AF93BF934E
:1002E000EF93FF93CF93DF93CDB7DEB7A297DEBF37
:1002F000CDBF000088EC90E0DC018C918823D4F71E
:100300008EEC90E0FC0180818093040180910401D7
:10031000882329F00E941F010E94BB0004C00E9494
:100320002D010E94CC0000008AE790E0DC018C9156
:10033000882F90E080749927892BB1F789E790E0A6
:10034000FC018081809305018EEC90E020910501F5
:10035000DC012C9380E090E0AAE7B4E489839A83DF
:10036000AB83BC8320E030E04AEF54E469817A81BA
:100370008B819C810E94EB026B8B7C8B8D8B9E8B87
:100380008B899C89AD89BE898D839E83AF83B88715
:1003900020E030E040E85FE36D817E818F819885C9
:1003A0000E94650288232CF481E090E09A87898777
:1003B00054C020E03FEF4FE757E46D817E818F818D
:1003C00098850E94E6021816D4F520E030E040E25D
:1003D00051E469817A818B819C810E94EB026F8B51
:1003E000788F898F9A8F8F89988DA98DBA8D8F87F5
:1003F000988BA98BBA8B6F85788989899A890E9495
:100400006A026B8F7C8F8D8F9E8FAB8DBC8DBA8770
:10041000A98710C088EC90E09C878B878B859C8592
:100420000197F1F79C878B87000089859A85019752
:100430009A87898789859A85892B61F719C06D818B
:100440007E818F8198850E946A026F8F78A389A32D
:100450009AA3EF8DF8A1FA87E98789859A859E8707
:100460008D878D859E850197F1F79E878D8700008A
:100470000E9400010000A2960FB6F894DEBF0FBEE6
:10048000CDBFDF91CF91FF91EF91BF91AF919F9140
:100490008F917F916F915F914F913F912F910F902D
:1004A0000FBE0F901F9018951F920F920FB60F92CC
:1004B0001124CF93DF93CDB7DEB70000DF91CF914A
:1004C0000F900FBE0F901F9018950E94990208F48C
:1004D00081E008950E94C50288F09F5798F0B92FD7
:1004E0009927B751B0F0E1F0660F771F881F991F69
:1004F0001AF0BA95C9F714C0B13091F00E94DF022A
:10050000B1E008950C94DF02672F782F8827B85F39
:1005100039F0B93FCCF3869577956795B395D9F7C0
:100520003EF490958095709561957F4F8F4F9F4FCA
:100530000895990F0008550FAA0BE0E8FEEF161674
:100540001706E807F907C0F012161306E407F507C7
:1005500098F0621B730B840B950B39F40A2661F03B
:10056000232B242B252B21F408950A2609F4A140DE
:10057000A6958FEF811D811D089557FD9058440F5A
:10058000551F59F05F3F71F04795880F97FB991FF2
:1005900061F09F3F79F087950895121613061406AF
:1005A000551FF2CF4695F1DF08C01616170618063C
:1005B000991FF1CF86957105610508940895E89417
:1005C000BB2766277727CB0197F908950E949902E8
:1005D00008F48FEF08950E94FE020C946F030E94AE
:1005E000610338F00E94680320F0952311F00C9409
:1005F00058030C945E0311240C94E0020E94BD0287
:1006000070F3959FC1F3950F50E0551F629FF00165
:10061000729FBB27F00DB11D639FAA27F00DB11D7E
:10062000AA1F649F6627B00DA11D661F829F222707
:10063000B00DA11D621F739FB00DA11D621F839F8E
:10064000A00D611D221F749F3327A00D611D231F64
:10065000849F600D211D822F762F6A2F11249F57B2
:1006600050409AF0F1F088234AF0EE0FFF1FBB1FB5
:10067000661F771F881F91505040A9F79E3F510574
:1006800080F00C9458030C94E0025F3FE4F3983E32
:10069000D4F3869577956795B795F795E7959F5F1E
:1006A000C1F7FE2B880F911D9695879597F90895B0
:1006B00097F99F6780E870E060E008959FEF80EC15
:1006C000089500240A9416161706180609060895B8
:1006D00000240A9412161306140605060895092E1E
:1006E0000394000C11F4882352F0BB0F40F4BF2B8D
:1006F00011F460FF04C06F5F7F4F8F4F9F4F0895CD
:04070000F894FFCF9B
:040704000000803F32
:00000001FF
