:100000000C943E000C945B000C945B000C945B0021
:100010000C945B000C945B000C945B000C945B00F4
:100020000C945B000C945B000C945B000C945B00E4
:100030000C945B000C945B000C945B000C945B00D4
:100040000C945B000C945B000C945B000C945B00C4
:100050000C945B000C945B000C945B000C945B00B4
:100060000C945B000C945B000C945B000C945B00A4
:100070000C9461010C945B000C945B0011241FBE76
:10008000CFEFD0E1DEBFCDBF11E0A0E0B1E0EAE309
:10009000FEE002C005900D92A630B107D9F721E02D
:1000A000A6E0B1E001C01D92A730B207E1F70E94BF
:1000B00051010C941B070C940000CF93DF93CDB734
:1000C000DEB78CE790E020E6FC0120838AE790E031
:1000D00026E8FC0120830000DF91CF910895CF93A3
:1000E000DF93CDB7DEB78AE290E0FC0120818AE29F
:1000F00090E02062FC01208380E890E0FC012081F8
:1001000080E890E02268FC01208381E890E0FC0117
:10011000208181E890E02A61FC01208386E890E05C
:100120002FEF3FEFFC01318320830000DF91CF915F
:100130000895CF93DF93CDB7DEB787E290E0FC015F
:10014000208187E290E02460FC0120830000DF91A1
:10015000CF910895CF93DF93CDB7DEB784E290E0DF
:10016000FC01208184E290E02260FC0120830000F9
:10017000DF91CF910895CF93DF93CDB7DEB785E2BE
:1001800090E0FC01208185E290E02260FC01208368
:100190000000DF91CF910895CF93DF93CDB7DEB705
:1001A00085E290E0FC01808185E290E0FC01108214
:1001B0000000DF91CF910895CF93DF9300D0CDB7AA
:1001C000DEB79A83898389819A81892B51F088E2ED
:1001D00090E0FC01208188E290E02460FC01208313
:1001E00009C088E290E0FC01208188E290E02B7F4A
:1001F000FC01208300000F900F90DF91CF910895B4
:10020000CF93DF93CDB7DEB788E890E0FC01118291
:1002100010820000DF91CF910895CF93DF93CDB787
:10022000DEB726E830E088E890E0F90120813181EE
:10023000FC01318320830000DF91CF910895CF939B
:10024000DF93CDB7DEB781E090E00E94DC000E9432
:100250000D010000DF91CF910895CF93DF93CDB7CB
:10026000DEB780E090E00E94DC000E940D010000FB
:10027000DF91CF910895CF93DF93CDB7DEB78DECAB
:1002800090E0FC0110828CEC90E027E6FC012083DA
:1002900089EC90E028E9FC0120830000DF91CF91F8
:1002A0000895CF93DF93CDB7DEB70E9499000E94E7
:1002B000AA000E946F000E945D000E943B0178949A
:1002C000FFCF1F920F920FB60F9211240F931F931F
:1002D0002F933F934F935F936F937F938F939F934E
:1002E000AF93BF93EF93FF93CF93DF93CDB7DEB779
:1002F000CC5AD109DEBFCDBF80E7898380E98A83EC
:100300008EEC90E0DC018C918093060180910601D7
:10031000813009F0D8C00E941F010E94BB0080E01C
:1003200090E0A8E4B3E48B839C83AD83BE8320E09C
:1003300030E04AEF54E46B817C818D819E810E9484
:100340008606A1966CAF7DAF8EAF9FAFA197A196A9
:100350008CAD9DADAEADBFADA1978F839887A987BA
:10036000BA8720E030E040E85FE36F8178858985D7
:100370009A850E94000688232CF481E090E09C87F7
:100380008B8765C020E03FEF4FE757E46F817885AA
:1003900089859A850E94810618160CF046C020E0D7
:1003A00030E040E251E46B817C818D819E810E942E
:1003B0008606A5966CAF7DAF8EAF9FAFA597A5962D
:1003C0008CAD9DADAEADBFADA5972D968CAF9DAF5D
:1003D000AEAFBFAF2D972D966CAD7DAD8EAD9FAD01
:1003E0002D970E940506A9966CAF7DAF8EAF9FAF8B
:1003F000A997A796AEADBFADA797BC87AB8710C036
:1004000088EC90E09E878D878D859E850197F1F71A
:100410009E878D8700008B859C8501979C878B87A5
:100420008B859C85892B61F71DC06F8178858985B7
:100430009A850E940506AD966CAF7DAF8EAF9FAFDB
:10044000AD97AB96EEADFFADAB97FC87EB878B8599
:100450009C85988B8F878F8598890197F1F7988B6A
:100460008F8700008AE790E0DC012C918AE790E01A
:100470002064FC01208300008AE790E0DC018C917D
:10048000882F90E080749927892BB1F789E790E055
:10049000FC018081882F90E09093050180930401F6
:1004A0008A81282F30E08091040190910501821704
:1004B0009307C4F220910401309105018EEC90E085
:1004C000DC012C937CC380910601882309F0D8C0FD
:1004D0000E942D010E94BB0080E090E0A8E4B3E4FC
:1004E000898B9A8BAB8BBC8B20E030E04AEF54E4D5
:1004F00069897A898B899C890E948606E1966CAF0E
:100500007DAF8EAF9FAFE197E1968CAD9DADAEAD67
:10051000BFADE1978D8B9E8BAF8BB88F20E030E025
:1005200040E85FE36D897E898F89988D0E9400067F
:1005300088232CF481E090E09A8F898F65C020E0B9
:100540003FEF4FE757E46D897E898F89988D0E9430
:10055000810618160CF046C020E030E040E251E47D
:1005600069897A898B899C890E948606E5966CAF99
:100570007DAF8EAF9FAFE597E5968CAD9DADAEADEF
:10058000BFADE59761968CAF9DAFAEAFBFAF619742
:1005900061966CAD7DAD8EAD9FAD61970E940506F5
:1005A000E9966CAF7DAF8EAF9FAFE997E796AEADA2
:1005B000BFADE797BA8FA98F10C088EC90E09C8FF1
:1005C0008B8F8B8D9C8D0197F1F79C8F8B8F00000B
:1005D000898D9A8D01979A8F898F898D9A8D892B14
:1005E00061F71DC06D897E898F89988D0E940506EF
:1005F000ED966CAF7DAF8EAF9FAFED97EB96EEAD06
:10060000FFADEB97FA8FE98F898D9A8D9E8F8D8F35
:100610008D8D9E8D0197F1F79E8F8D8F00008AE75B
:1006200090E0DC012C918AE790E02064FC012083BB
:1006300000008AE790E0DC018C91882F90E08074C4
:100640009927892BB1F789E790E0FC018081882FF9
:1006500090E090930501809304018981282F30E078
:10066000809104019091050128173907C4F2209167
:100670000401309105018EEC90E0DC012C939FC2C7
:1006800080910601823009F0E0C00E942D010E9495
:10069000BB0080E090E0A8E4B3E48F8F98A3A9A307
:1006A000BAA320E030E04AEF54E46F8D78A189A12D
:1006B0009AA10E948606C358DF4F688379838A8394
:1006C0009B83CD57D040C358DF4F88819981AA8141
:1006D000BB81CD57D0408BA39CA3ADA3BEA320E08C
:1006E00030E040E85FE36BA17CA18DA19EA10E9458
:1006F000000688232CF481E090E098A78FA371C0B6
:1007000020E03FEF4FE757E46BA17CA18DA19EA1B4
:100710000E94810618160CF04EC020E030E040E246
:1007200051E46F8D78A189A19AA10E948606CF57C6
:10073000DF4F688379838A839B83C158D040CF572A
:10074000DF4F88819981AA81BB81C158D0406596CD
:100750008CAF9DAFAEAFBFAF659765966CAD7DAD0D
:100760008EAD9FAD65970E940506CB57DF4F68831E
:1007700079838A839B83C558D040CB57DF4FA881AC
:10078000B981C558D040B8A7AFA310C088EC90E09D
:100790009AA789A789A59AA50197F1F79AA789A78A
:1007A00000008FA198A5019798A78FA38FA198A566
:1007B000892B61F721C06BA17CA18DA19EA10E9414
:1007C0000506C757DF4F688379838A839B83C9589F
:1007D000D040C757DF4FE881F981C958D040F8A70A
:1007E000EFA38FA198A59CA78BA78BA59CA501978C
:1007F000F1F79CA78BA700008AE790E0DC012C9121
:100800008AE790E02064FC01208300008AE790E002
:10081000DC018C91882F90E080749927892BB1F7A7
:1008200089E790E0FC018081882F90E0909305019A
:10083000809304018981282F30E0809104019091F8
:10084000050128173907C4F2BAC180910601833027
:1008500009F0B7C00E941F010E94BB0080E090E039
:10086000A8E4B2E48DA79EA7AFA7B8AB20E030E024
:100870004AEF54E46DA57EA58FA598A90E9486062F
:10088000C357DF4F688379838A839B83CD58D040D9
:10089000C357DF4F88819981AA81BB81CD58D04051
:1008A00089AB9AABABABBCAB20E030E040E85FE398
:1008B00069A97AA98BA99CA90E94000688232CF417
:1008C00081E090E09EAB8DAB71C020E03FEF4FE741
:1008D00057E469A97AA98BA99CA90E9481061816D8
:1008E0000CF04EC020E030E040E251E46DA57EA562
:1008F0008FA598A90E948606CF56DF4F688379831B
:100900008A839B83C159D040CF56DF4F888199811C
:10091000AA81BB81C159D04069968CAF9DAFAEAF63
:10092000BFAF699769966CAD7DAD8EAD9FAD699790
:100930000E940506CB56DF4F688379838A839B83A9
:10094000C559D040CB56DF4FA881B981C559D04099
:10095000BEABADAB10C088EC90E098AF8FAB8FA969
:1009600098AD0197F1F798AF8FAB00008DA99EA9C4
:1009700001979EAB8DAB8DA99EA9892B61F71FC1F5
:1009800069A97AA98BA99CA90E940506C756DF4FC1
:10099000688379838A839B83C959D040C756DF4FC8
:1009A000E881F981C959D040FEABEDAB8DA99EA974
:1009B0009AAF89AF89AD9AAD0197F1F79AAF89AF38
:1009C000FEC080910601843009F0F9C00E942D011B
:1009D0000E94BB0080E090E0A8E4B2E48BAF9CAF43
:1009E000ADAFBEAF8E01015C1F4F20E030E04AEF9B
:1009F00054E46BAD7CAD8DAD9EAD0E948606C356B2
:100A0000DF4F688379838A839B83CD59D040C35657
:100A1000DF4F88819981AA81BB81CD59D040F801EF
:100A200080839183A283B383CE01CF9620E030E010
:100A300040E85FE3DC016D917D918D919C910E9476
:100A4000000688234CF4CE018D5B9F4F21E030E0FF
:100A5000FC013183208398C0CE01CF9620E03FEF88
:100A60004FE757E4DC016D917D918D919C910E943F
:100A7000810618160CF06BC020E030E040E251E433
:100A80006BAD7CAD8DAD9EAD0E948606CF55DF4F20
:100A9000688379838A839B83C15AD040CF55DF4FC7
:100AA00088819981AA81BB81C15AD0406D968CAF53
:100AB0009DAFAEAFBFAF6D978E010D5B1F4F6D96B3
:100AC0006CAD7DAD8EAD9FAD6D970E940506CB558B
:100AD000DF4F688379838A839B83C55AD040CB5587
:100AE000DF4FE881F981C55AD040D801ED93FC93DE
:100AF00025C0CE018B5B9F4F28EC30E0DC012D93AD
:100B00003C93CE018B5B9F4FFC01808191810197CB
:100B1000F1F79E012B5B3F4FD9018D939C93000011
:100B2000CE018D5B9F4F9E012D5B3F4FF9012081D0
:100B3000318121503109DC012D933C93CE018D5B35
:100B40009F4FFC0180819181892B99F638C08E01DD
:100B50000D5B1F4FCE01CF96DC016D917D918D9184
:100B60009C910E940506C755DF4F688379838A836D
:100B70009B83C95AD040C755DF4F88819981C95A94
:100B8000D040F80191838083CE01895B9F4F9E0105
:100B90002D5B3F4FD9012D913C91FC013183208386
:100BA000CE01895B9F4FDC018D919C910197F1F7FC
:100BB0009E01295B3F4FF9019183808300000E94D1
:100BC00000010E94CC000000C455DF4F0FB6F8941E
:100BD000DEBF0FBECDBFDF91CF91FF91EF91BF91EF
:100BE000AF919F918F917F916F915F914F913F91C5
:100BF0002F911F910F910F900FBE0F901F9018957E
:100C00000E94340608F481E008950E94600688F08E
:100C10009F5798F0B92F9927B751B0F0E1F0660FC0
:100C2000771F881F991F1AF0BA95C9F714C0B13001
:100C300091F00E947A06B1E008950C947A06672F2D
:100C4000782F8827B85F39F0B93FCCF38695779530
:100C50006795B395D9F73EF4909580957095619519
:100C60007F4F8F4F9F4F0895990F0008550FAA0B84
:100C7000E0E8FEEF16161706E807F907C0F01216AF
:100C80001306E407F50798F0621B730B840B950BB2
:100C900039F40A2661F0232B242B252B21F4089507
:100CA0000A2609F4A140A6958FEF811D811D0895A4
:100CB00057FD9058440F551F59F05F3F71F047950D
:100CC000880F97FB991F61F09F3F79F087950895F2
:100CD000121613061406551FF2CF4695F1DF08C011
:100CE000161617061806991FF1CF8695710561052E
:100CF00008940895E894BB2766277727CB0197F9D6
:100D000008950E94340608F48FEF08950E94990612
:100D10000C940A070E94FC0638F00E94030720F09A
:100D2000952311F00C94F3060C94F90611240C94FD
:100D30007B060E94580670F3959FC1F3950F50E013
:100D4000551F629FF001729FBB27F00DB11D639F7D
:100D5000AA27F00DB11DAA1F649F6627B00DA11D23
:100D6000661F829F2227B00DA11D621F739FB00DC9
:100D7000A11D621F839FA00D611D221F749F332739
:100D8000A00D611D231F849F600D211D822F762FD2
:100D90006A2F11249F5750409AF0F1F088234AF0AF
:100DA000EE0FFF1FBB1F661F771F881F915050401B
:100DB000A9F79E3F510580F00C94F3060C947B0636
:100DC0005F3FE4F3983ED4F3869577956795B795A2
:100DD000F795E7959F5FC1F7FE2B880F911D9695BC
:100DE000879597F9089597F99F6780E870E060E02C
:100DF00008959FEF80EC089500240A9416161706B4
:100E000018060906089500240A94121613061406FB
:100E100005060895092E0394000C11F4882352F05E
:100E2000BB0F40F4BF2B11F460FF04C06F5F7F4F16
:0A0E30008F4F9F4F0895F894FFCFF5
:060E3A000000803F7F0074
:00000001FF
