:100000000C943E000C945B000C945B000C945B0021
:100010000C945B000C945B000C945B000C945B00F4
:100020000C945B000C945B000C945B000C945B00E4
:100030000C945B000C945B000C945B000C945B00D4
:100040000C945B000C945B000C945B000C945B00C4
:100050000C945B000C945B000C945B000C945B00B4
:100060000C945B000C945B000C945B000C945B00A4
:100070000C9461010C945B000C945B0011241FBE76
:10008000CFEFD0E1DEBFCDBF11E0A0E0B1E0E8E806
:10009000F8E002C005900D92A630B107D9F721E033
:1000A000A6E0B1E001C01D92A730B207E1F70E94BF
:1000B00051010C9442040C940000CF93DF93CDB710
:1000C000DEB78CE790E020E6FC0120838AE790E031
:1000D00026E8FC0120830000DF91CF910895CF93A3
:1000E000DF93CDB7DEB78AE290E0FC0120818AE29F
:1000F00090E02062FC01208380E890E0FC012081F8
:1001000080E890E02268FC01208381E890E0FC0117
:10011000208181E890E02A61FC01208386E890E05C
:100120002FEF3FEFFC01318320830000DF91CF915F
:100130000895CF93DF93CDB7DEB787E290E0FC015F
:10014000208187E290E02460FC0120830000DF91A1
:10015000CF910895CF93DF93CDB7DEB784E290E0DF
:10016000FC01208184E290E02260FC0120830000F9
:10017000DF91CF910895CF93DF93CDB7DEB785E2BE
:1001800090E0FC01208185E290E02260FC01208368
:100190000000DF91CF910895CF93DF93CDB7DEB705
:1001A00085E290E0FC01808185E290E0FC01108214
:1001B0000000DF91CF910895CF93DF9300D0CDB7AA
:1001C000DEB79A83898389819A81892B51F088E2ED
:1001D00090E0FC01208188E290E02460FC01208313
:1001E00009C088E290E0FC01208188E290E02B7F4A
:1001F000FC01208300000F900F90DF91CF910895B4
:10020000CF93DF93CDB7DEB788E890E0FC01118291
:1002100010820000DF91CF910895CF93DF93CDB787
:10022000DEB726E830E088E890E0F90120813181EE
:10023000FC01318320830000DF91CF910895CF939B
:10024000DF93CDB7DEB781E090E00E94DC000E9432
:100250000D010000DF91CF910895CF93DF93CDB7CB
:10026000DEB780E090E00E94DC000E940D010000FB
:10027000DF91CF910895CF93DF93CDB7DEB78DECAB
:1002800090E0FC0110828CEC90E027E6FC012083DA
:1002900089EC90E028E9FC0120830000DF91CF91F8
:1002A0000895CF93DF93CDB7DEB70E9499000E94E7
:1002B000AA000E946F000E945D000E943B0178949A
:1002C000FFCF1F920F920FB60F9211242F933F93DF
:1002D0004F935F936F937F938F939F93AF93BF934E
:1002E000EF93FF93CF93DF93CDB7DEB7C454D1091B
:1002F000DEBFCDBF8EEC90E0DC018C9180930601D7
:1003000080910601813009F0B8C00E941F010E944F
:10031000BB0080E090E0A6E9B3E489839A83AB83D5
:10032000BC8320E030E04AEF54E469817A818B811C
:100330009C810E94AD036DA37EA38FA398A78DA17E
:100340009EA1AFA1B8A58D839E83AF83B88720E01F
:1003500030E040E85FE36D817E818F8198850E9467
:10036000270388232CF481E090E09A87898754C082
:1003700020E03FEF4FE757E46D817E818F819885C4
:100380000E94A8031816D4F520E030E040E251E4C2
:1003900069817A818B819C810E94AD0369A77AA7CC
:1003A0008BA79CA789A59AA5ABA5BCA58D8F9E8F71
:1003B000AF8FB8A36D8D7E8D8F8D98A10E942C0379
:1003C0006DA77EA78FA798ABADA5BEA5BA87A98755
:1003D00010C088EC90E09C878B878B859C8501976B
:1003E000F1F79C878B87000089859A8501979A870A
:1003F000898789859A85892B61F719C06D817E81EE
:100400008F8198850E942C0369AB7AAB8BAB9CAB38
:10041000E9A9FAA9FA87E98789859A859E878D8750
:100420008D859E850197F1F79E878D8700008AE76D
:1004300090E0DC012C918AE790E02064FC012083AD
:1004400000008AE790E0DC018C91882F90E08074B6
:100450009927892BB1F789E790E0FC018081882FEB
:1004600090E09093050180930401809104019091A4
:10047000050180399105DCF2C3C080910601882313
:1004800009F0BEC00E942D010E94BB0080E090E0F8
:10049000A6E9B3E48F87988BA98BBA8B20E030E074
:1004A0004AEF54E46F85788989899A890E94AD035F
:1004B0006DAB7EAB8FAB98AF8DA99EA9AFA9B8AD40
:1004C0008B8B9C8BAD8BBE8B20E030E040E85FE3F4
:1004D0006B897C898D899E890E94270388232CF44F
:1004E00081E090E0988F8F8B5BC020E03FEF4FE77B
:1004F00057E46B897C898D899E890E94A803181610
:100500000CF03CC020E030E040E251E46F85788997
:1005100089899A890E94AD0369AF7AAF8BAF9CAF8E
:1005200089AD9AADABADBCAD89A39AA3ABA3BCA377
:1005300069A17AA18BA19CA10E942C0321966CAF8A
:100540007DAF8EAF9FAF2197ADADBEADB88FAF8BF6
:1005500010C088EC90E09A8F898F898D9A8D0197D1
:10056000F1F79A8F898F00008F89988D0197988F66
:100570008F8B8F89988D892B61F71DC06B897C8942
:100580008D899E890E942C0325966CAF7DAF8EAF1E
:100590009FAF25972396EEADFFAD2397F88FEF8B96
:1005A0008F89988D9C8F8B8F8B8D9C8D0197F1F708
:1005B0009C8F8B8F00008AE790E0DC012C918AE70A
:1005C00090E02064FC01208300008AE790E0DC01D9
:1005D0008C91882F90E080749927892BB1F789E757
:1005E00090E0FC018081882F90E09093050180933A
:1005F0000401809104019091050181379105DCF699
:100600000E9400010E94CC0020910401309105015C
:100610008EEC90E0DC012C930000CC5BDF4F0FB63A
:10062000F894DEBF0FBECDBFDF91CF91FF91EF9168
:10063000BF91AF919F918F917F916F915F914F91FA
:100640003F912F910F900FBE0F901F9018950E9411
:100650005B0308F481E008950E94870388F09F57A8
:1006600098F0B92F9927B751B0F0E1F0660F771FD6
:10067000881F991F1AF0BA95C9F714C0B13091F0CC
:100680000E94A103B1E008950C94A103672F782F75
:100690008827B85F39F0B93FCCF386957795679591
:1006A000B395D9F73EF490958095709561957F4FFD
:1006B0008F4F9F4F0895990F0008550FAA0BE0E840
:1006C000FEEF16161706E807F907C0F01216130614
:1006D000E407F50798F0621B730B840B950B39F454
:1006E0000A2661F0232B242B252B21F408950A26BA
:1006F00009F4A140A6958FEF811D811D089557FD36
:100700009058440F551F59F05F3F71F04795880F7F
:1007100097FB991F61F09F3F79F087950895121616
:1007200013061406551FF2CF4695F1DF08C01616C2
:1007300017061806991FF1CF869571056105089473
:100740000895E894BB2766277727CB0197F908958A
:100750000E945B0308F48FEF08950E94C0030C947D
:1007600031040E94230438F00E942A0420F09523CB
:1007700011F00C941A040C94200411240C94A2037C
:100780000E947F0370F3959FC1F3950F50E0551FB2
:10079000629FF001729FBB27F00DB11D639FAA27D6
:1007A000F00DB11DAA1F649F6627B00DA11D661F25
:1007B000829F2227B00DA11D621F739FB00DA11D46
:1007C000621F839FA00D611D221F749F3327A00D00
:1007D000611D231F849F600D211D822F762F6A2F9C
:1007E00011249F5750409AF0F1F088234AF0EE0F01
:1007F000FF1FBB1F661F771F881F91505040A9F72E
:100800009E3F510580F00C941A040C94A2035F3FA4
:10081000E4F3983ED4F3869577956795B795F79569
:10082000E7959F5FC1F7FE2B880F911D96958795E1
:1008300097F9089597F99F6780E870E060E0089560
:100840009FEF80EC089500240A94161617061806E8
:100850000906089500240A941216130614060506C4
:100860000895092E0394000C11F4882352F0BB0F55
:1008700040F4BF2B11F460FF04C06F5F7F4F8F4FB8
:080880009F4F0895F894FFCF8B
:060888000000803F7F002C
:00000001FF
